:100000000C9462000C948A000C948A000C948A0070
:100010000C948A000C948A000C948A000C948A0038
:100020000C948A000C948A000C948A000C9411049D
:100030000C948A000C948A000C948A000C948A0018
:100040000C94C7030C948A000C948A000C948A00C8
:100050000C948A000C948A000C948A000C948A00F8
:100060000C948A000C948A000000000023002600F3
:10007000290000000000240027002A0000000000E2
:10008000250028002B0004040404040404040202D4
:100090000202020203030303030301020408102007
:1000A0004080010204081020010204081020000012
:1000B0000008000201000003040700000000000027
:1000C0000000C60611241FBECFEFD8E0DEBFCDBFB3
:1000D00011E0A0E0B1E0ECE6F1E102C005900D9284
:1000E000A037B107D9F721E0A0E7B1E001C01D9228
:1000F000AE3BB207E1F710E0C2E6D0E004C02197C2
:10010000FE010E94AE08C136D107C9F70E94120550
:100110000C94B4080C9400008F929F92AF92BF92FF
:10012000FF920F931F93CF93DF93F090A3012BE0E7
:100130002F1508F44CC02091A50108E512E0021B20
:10014000110927FD1395000F111F000F111F20919A
:10015000A401C8E8D0E0C21BD10927FDD395CC0F7C
:10016000DD1FCC0FDD1F4E010D2E000CAA08BB08B1
:100170009801012E000C440B550B281939094A0926
:100180005B09DC010E94380724EB30E040E050E0DE
:100190000E940E07820E931EA41EB51E8C169D068D
:1001A0002CF0E801801691060CF4E4012297CC0FA4
:1001B000DD1F2FB7F8948F2D90E0FC01EE0FFF1F8D
:1001C000E80FF91FE158FE4FD283C1832FBFDF91A3
:1001D000CF911F910F91FF90BF90AF909F908F9004
:1001E000089590E0FC01E255FF4F2491FC01E65692
:1001F000FF4F3491FC01EA57FF4FE491EE23C9F021
:10020000222339F0233001F1A8F4213019F12230F2
:1002100029F1F0E0EE0FFF1FE458FF4FA591B491D4
:100220008FB7F894EC91611126C030953E233C9332
:100230008FBF08952730A9F02830C9F0243049F73E
:10024000809180008F7D03C0809180008F778093A4
:100250008000DFCF84B58F7784BDDBCF84B58F7D01
:10026000FBCF8091B0008F778093B000D2CF809188
:10027000B0008F7DF9CF3E2BDACFCF93DF9390E0A4
:10028000FC01E656FF4F24918A579F4FFC01849151
:100290008823D1F090E0880F991FFC01EE58FF4FA2
:1002A000A591B491FC01E458FF4FC591D49161111F
:1002B0000EC09FB7F8948C91E22FE0958E238C931B
:1002C0002881E223E8839FBFDF91CF9108958FB704
:1002D000F894EC91E22BEC938FBFF6CF3FB7F894F4
:1002E00080917B0190917C01A0917D01B0917E0174
:1002F00026B5A89B05C02F3F19F00196A11DB11D81
:100300003FBFBA2FA92F982F8827BC01CD01620FBC
:10031000711D811D911D42E0660F771F881F991F77
:100320004A95D1F708958F929F92AF92BF92CF9244
:10033000DF92EF92FF924B015C010E946E016B0114
:100340007C010E946E016C197D098E099F09683E2F
:10035000734081059105A8F321E0821A9108A10854
:10036000B10888EEC80E83E0D81EE11CF11C811490
:100370009104A104B10429F7FF90EF90DF90CF9092
:10038000BF90AF909F908F900895AF92BF92CF9201
:10039000DF92EF92FF920F931F93CF93DF936C0145
:1003A0007B018B01040F151FEB015E01AE18BF0826
:1003B000C017D10759F06991D601ED91FC910190D8
:1003C000F081E02DC6010995892B79F7C501DF91F0
:1003D000CF911F910F91FF90EF90DF90CF90BF9042
:1003E000AF900895089590E080E008958F929F92D5
:1003F000AF92BF920F931F93CF93DF93CDB7DEB72A
:10040000A1970FB6F894DEBF0FBECDBF19A2423040
:1004100008F44AE08E010F5D1F4F842E912CB12C01
:10042000A12CA50194010E944007E62FB901CA0141
:10043000EA3044F5E05DD801EE938D01232B242BA7
:10044000252B79F790E080E0109769F0FD0101908D
:100450000020E9F73197AF014A1B5B0BBD0186EA2B
:1004600091E00E94C501A1960FB6F894DEBF0FBEC1
:10047000CDBFDF91CF911F910F91BF90AF909F9013
:100480008F900895E95CD7CFFC0101900020E9F737
:100490003197AF01481B590BBC0186EA91E00C94DF
:1004A000C501CF93DF93EC0160E08E810E94F100E3
:1004B00061E08E810E94F10060E08E810E94F10077
:1004C0008BE891E00197F1F7DF91CF910895CF92FA
:1004D000DF92EF92FF920F931F93CF93DF936C0104
:1004E0007C0187E0E80EF11CD0E0C0E0062F10E0B0
:1004F000B8010C2E02C0759567950A94E2F76170F9
:10050000F70181917F010E94F1002196C430D1054D
:1005100079F7C601DF91CF911F910F91FF90EF9076
:10052000DF90CF900C945102CF92DF92EF92FF9226
:100530000F931F93CF93DF93EC01F62E642F8C81E2
:100540000E94F1008D818F3F19F060E00E94F10060
:100550000F2D10E08F8584FF25C06E0187E0C80E47
:10056000D11CF12CE12CB8010E2C02C075956795B9
:100570000A94E2F76170F60181916F010E94F10027
:10058000FFEFEF1AFF0A88E0E816F10461F7CE01E9
:10059000DF91CF911F910F91FF90EF90DF90CF905F
:1005A0000C945102B80184E0759567958A95E1F73E
:1005B000CE010E9467026F2DCE01DF91CF911F9176
:1005C0000F91FF90EF90DF90CF900C94670240E086
:1005D000682F86EA91E00C94940281E00E94E70281
:1005E0008BE39FE10197F1F70895CF93DF9382307A
:1005F00029F49091B50198609093B5018093B90169
:100600001092BA0180E48093BB0180E18093BC0129
:1006100080E58093BD0161E08091AA010E943D01C7
:100620008091AB018F3F19F061E00E943D0161E0D4
:100630008091AC010E943D01C6EAD1E09E01265A9C
:1006400031408091B50184FD0BC084E090E021969B
:100650002817390744F461E08E810E943D01EECFF6
:1006600088E090E0F4CF8BE39DE00197F1F760E044
:100670008091AA010E94F10060E08091AC010E948B
:10068000F1008091AB018F3F19F060E00E94F10012
:100690008091B50184FD34C063E086EA91E00E9458
:1006A0006702CBE4D6E4CE010197F1F763E086EA76
:1006B00091E00E9467022197F1F763E086EA91E0FA
:1006C0000E94670283E592E00197F1F762E086EA13
:1006D00091E00E9467028091B50180620E94E7026A
:1006E00084E08093B6018CE00E94E7020E94ED0254
:1006F00082E08093B70186E0DF91CF910C94E7020E
:1007000080620E94E7028BE496E40197F1F7809102
:10071000B50180620E94E70283E592E00197F1F75C
:100720008091B50180620E94E702D5CF9091B90116
:10073000691710F06FEF690FE62FF0E0EA55FE4FF2
:100740009489890F80680C94E70241E00E9494022A
:1007500081E090E00895CF92DF92EF92FF926B01DB
:100760007C0141E06DE286EA91E00E9494026627F6
:100770007727CB016C197D098E099F094AE00E94F9
:10078000F6010196FF90EF90DF90CF9008951F92B1
:100790000F920FB60F9211242F933F938F939F9335
:1007A000AF93BF938091770190917801A0917901E7
:1007B000B0917A013091760123E0230F2D3758F55F
:1007C0000196A11DB11D209376018093770190932E
:1007D0007801A0937901B0937A0180917B01909187
:1007E0007C01A0917D01B0917E010196A11DB11DFA
:1007F00080937B0190937C01A0937D01B0937E0157
:10080000BF91AF919F918F913F912F910F900FBE0C
:100810000F901F90189526E8230F0296A11DB11D79
:10082000D2CF1F920F920FB60F9211242F933F93A6
:100830004F935F936F937F938F939F93AF93BF93E8
:10084000CF93DF93EF93FF9380917101C09170017B
:10085000D0E087FF24C01092850010928400809120
:1008600071018F5F8093710180917101082E000CDE
:10087000990B8C179D0724F4809171018C30C4F181
:100880008091840090918500049680349C4908F4FE
:100890007AC08091840090918500049676C0809102
:1008A0007101082E000C990B8C179D07C4F6E0917E
:1008B00071018E2FEE0F990BFC01EE0FFF1FE80F59
:1008C000F91FE158FE4F808186FFC9CFE091710189
:1008D0008E2FEE0F990BFC01EE0FFF1FE80FF91F93
:1008E000E158FE4F808160E08F730E94F100B7CF26
:1008F0002091840030918500E09171018E2FEE0FE0
:10090000990BFC01EE0FFF1FE80FF91FE158FE4F96
:1009100081819281820F931F909389008093880038
:10092000E09171018E2FEE0F990BFC01EE0FFF1F6E
:10093000E80FF91FE158FE4F808186FF11C0E0915A
:1009400071018E2FEE0F990BFC01EE0FFF1FE80FC8
:10095000F91FE158FE4F808161E08F730E94F10022
:10096000FF91EF91DF91CF91BF91AF919F918F91C7
:100970007F916F915F914F913F912F910F900FBE9B
:100980000F901F90189580E49CE9909389008093C4
:1009900088008FEF80937101E3CFCF92DF92EF92C7
:1009A000FF920F931F93E82FF92F05C001501109F3
:1009B0002109310961F1908196239417B9F305C09B
:1009C000015011092109310911F1908196239413E5
:1009D000F7CFC12CD12CE12CF12C0AC08FEFC81A13
:1009E000D80AE80AF80A0C151D052E053F0579F00E
:1009F00080818623841791F36C2D7D2D8E2D9F2D64
:100A00001F910F91FF90EF90DF90CF90089560E0DD
:100A100070E080E090E01F910F91FF90EF90DF90E9
:100A2000CF900895789484B5826084BD84B5816048
:100A300084BD85B5826085BD85B5816085BD8091A9
:100A40006E00816080936E00109281008091810021
:100A50008260809381008091810081608093810019
:100A6000809180008160809380008091B1008460DB
:100A70008093B1008091B00081608093B00080913C
:100A80007A00846080937A0080917A0082608093FB
:100A90007A0080917A00816080937A0080917A0058
:100AA000806880937A001092C10082E00E94F50273
:100AB00061E086E00E943D0161E087E00E943D0127
:100AC00061E08EE00E943D0160E08FE00E943D0108
:100AD0008091A3018C3008F050C061E080E00E945A
:100AE0003D018091A301282F30E0F901EE0FFF1F97
:100AF000E20FF31FE158FE4F9081907C908310929B
:100B0000A4011092A5012CE0622F0E94A208829FEE
:100B1000B001112430E020E0AB01420F531FFA0175
:100B2000EE0FFF1FE40FF51FE158FE4F908196FD79
:100B300016C02F5F3F4F2C30310571F781110FC068
:100B40001092800082E080938100109285001092C4
:100B50008400B19A80916F00826080936F00E09171
:100B6000A3018E2F90E0FC01EE0FFF1FE80FF91F8D
:100B7000E158FE4F80818064808360E086E00E94BF
:100B8000F10060E087E00E94F10090E080E00E94C8
:100B90008C0060E080E00E9496038CE091E00E946F
:100BA000440261E084E00E9496038DE191E00E949E
:100BB000440264EF71E080E090E00E9493010E94A3
:100BC000ED0260E080E00E94960386E291E00E94E0
:100BD000440261E080E00E94960385E391E00E9478
:100BE000440264EF71E080E090E00E9493010E9473
:100BF000ED02C3E0D0E093E2E92EF12C29EAC22E07
:100C000020E0D22E35E9A32E30E0B32E40E0842E32
:100C100040E0942E60E08EE00E94F100CE0101974A
:100C2000F1F761E08EE00E94F100C7010197F1F752
:100C300060E08EE00E94F100F6016491F50184917C
:100C4000E82FF0E0EE0FFF1FE859FF4F85919491D8
:100C500000E412E42FE030E0462F0E94CD0461153D
:100C600071058105910529F06F5F7F4F8F4F9F4F71
:100C70009F700E94A90726E933E44BE05DE30E94E0
:100C80000D0820E030E040E05FE30E940D080E9484
:100C90007107609372017093730180937401909354
:100CA00075016150710981099109643671058105E9
:100CB0009105E8F560E080E00E94960382E491E00F
:100CC0000E944402609172017091730180917401DD
:100CD0009091750197FF27C00E94AB038BE491E0D0
:100CE0000E94440261E080E00E94960380E591E06A
:100CF0000E94440260E086E00E94F10061E087E02B
:100D00000E94F1008AE590E00E948C0064E670E0A9
:100D100080E090E00E9493018114910409F47ACF5D
:100D20000E94000077CF4AE00E94F601D7CF60E032
:100D300080E00E94960382E491E00E944402609168
:100D4000720170917301809174019091750197FF08
:100D500019C00E94AB038BE491E00E94440261E061
:100D600080E00E94960380E691E00E94440261E0E8
:100D700086E00E94F10060E087E00E94F10090E0D0
:100D800080E0C2CF4AE00E94F601E5CFCF931092F7
:100D9000A9011092A80184E091E09093A7018093AB
:100DA000A6018DE08093AA01CFEFC093AB018CE048
:100DB0008093AC018BE08093AD018AE08093AE011B
:100DC00089E08093AF0188E08093B0011092B10177
:100DD0001092B2011092B3011092B4011092B501B9
:100DE00081E00E94F502809170018C30A0F491E0C6
:100DF000980F909370018093A30190E0FC01EE0F97
:100E0000FF1FE80FF91FE158FE4F88EB9BE092832C
:100E10008183CF910895C093A301FBCF052E97FB4B
:100E20001EF400940E94250757FD07D00E9440073A
:100E300007FC03D04EF40C9425075095409530954F
:100E400021953F4F4F4F5F4F089590958095709536
:100E500061957F4F8F4F9F4F08950E946207A59F16
:100E6000900DB49F900DA49F800D911D11240895A5
:100E7000B7FF0C942D070E942D07821B930B08953A
:100E8000A1E21A2EAA1BBB1BFD010DC0AA1FBB1F8E
:100E9000EE1FFF1FA217B307E407F50720F0A21B00
:100EA000B30BE40BF50B661F771F881F991F1A946D
:100EB00069F760957095809590959B01AC01BD0197
:100EC000CF010895A29FB001B39FC001A39F700DF1
:100ED000811D1124911DB29F700D811D1124911D42
:100EE00008950E9478076894B1110C94070808953A
:100EF0000E94EC0788F09F5798F0B92F9927B751B7
:100F0000B0F0E1F0660F771F881F991F1AF0BA95AD
:100F1000C9F714C0B13091F00E940608B1E00895FD
:100F20000C940608672F782F8827B85F39F0B93FEF
:100F3000CCF3869577956795B395D9F73EF4909560
:100F40008095709561957F4F8F4F9F4F0895E894DE
:100F500009C097FB3EF490958095709561957F4F01
:100F60008F4F9F4F9923A9F0F92F96E9BB279395AF
:100F7000F695879577956795B795F111F8CFFAF4BF
:100F8000BB0F11F460FF1BC06F5F7F4F8F4F9F4FF0
:100F900016C0882311F096E911C0772321F09EE84E
:100FA000872F762F05C0662371F096E8862F70E0B4
:100FB00060E02AF09A95660F771F881FDAF7880F8E
:100FC0009695879597F9089557FD9058440F551FAA
:100FD00059F05F3F71F04795880F97FB991F61F0BB
:100FE0009F3F79F087950895121613061406551F32
:100FF000F2CF4695F1DF08C0161617061806991F9E
:10100000F1CF86957105610508940895E894BB2792
:1010100066277727CB0197F908950E9420080C9442
:1010200091080E94830838F00E948A0820F09523D6
:1010300011F00C947A080C94800811240C94070881
:101040000E94E40770F3959FC1F3950F50E0551F80
:10105000629FF001729FBB27F00DB11D639FAA270D
:10106000F00DB11DAA1F649F6627B00DA11D661F5C
:10107000829F2227B00DA11D621F739FB00DA11D7D
:10108000621F839FA00D611D221F749F3327A00D37
:10109000611D231F849F600D211D822F762F6A2FD3
:1010A00011249F5750409AF0F1F088234AF0EE0F38
:1010B000FF1FBB1F661F771F881F91505040A9F765
:1010C0009E3F510580F00C947A080C9407085F3F0E
:1010D000E4F3983ED4F3869577956795B795F795A1
:1010E000E7959F5FC1F7FE2B880F911D9695879519
:1010F00097F9089597F99F6780E870E060E0089598
:101100009FEF80EC089500240A941616170618061F
:101110000906089500240A941216130614060506FB
:101120000895092E0394000C11F4882352F0BB0F8C
:1011300040F4BF2B11F460FF04C06F5F7F4F8F4FEF
:101140009F4F0895991B79E004C0991F961708F0E6
:10115000961B881F7A95C9F780950895EE0FFF1F9B
:0C1160000590F491E02D0994F894FFCF65
:10116C0000000000A503C501F301F2012046494E21
:10117C00414C2050524F4A4543542E2000204B4F97
:10118C004D4441542000202050414C414E472050AA
:10119C00494E545500202020204F544F4D41544966
:1011AC005300204A6172616B203A0020436D20008D
:1011BC0050616C616E672054657262756B612000C2
:1011CC0050616C616E672054657274757475700033
:00000001FF
